S01D000046696E616C5F70726F6A6563745F74656D706C6174652E6D6F7469
S21400000000400020B50400001D0500001D0500008E
S2140000101D0500001D0500001D0500000000000075
S2140000200000000000000000000000001D050000A9
S2140000301D050000000000001D050000A5C600000C
S214000040716B00007B6B0000856B00008F6B0000FF
S214000050996B0000A36B0000AD6B0000B76B00004F
S214000060C16B0000CB6B0000D56B0000DF6B00009F
S214000070E96B0000F36B0000FD6B0000076C0000EE
S214000080116C00001D0500001D0500001D05000088
S2140000901D0500001D0500001D0500001D050000D3
S2140000A01D0500001D0500001D0500001D050000C3
S2140000B01D0500001D0500001D0500001D050000B3
S2140000C01D0500001D0500001D0500001D050000A3
S2140000D01D0500001D0500001D05000099C5000057
S2140000E0A3C500001D0500001D0500001D0500003D
S2140000F01D0500001D0500001D0500001D05000073
S214000100E7C500001D0500001D0500001D050000D8
S2140001101D0500001D0500001D0500001D05000052
S2140001201D0500001D0500001D0500001D05000042
S2140001301D0500001D0500001D0500001D05000032
S2140001401D0500001D0500001D0500001D05000022
S2140001501D0500001D0500001D0500001D05000012
S2140001601D0500001D0500001D0500001D05000002
S2140001701D0500001D050000B58F0000BF8F0000A4
S214000180C98F0000D38F0000DD8F00001D05000022
S2140001901D050000E78F0000F18F00001D05000020
S2140001A0FB8F00001D0500001D0500001D0500005A
S2140001B00F900000199000001D050000239000001D
S2140001C01D0500001D0500001D050000FD9F000028
S2140001D009A0000015A0000021A00000D197000093
S2140001E01D0500002DA0000039A0000045A000005D
S2140001F051A00000119800001D0500005DA0000041
S21400020069A0000075A0000081A0000051980000C1
S2140002101D0500008DA0000099A00000A5A000000C
S214000220B1A00000919800001D0500001D0500000B
S2140002301D0500001D0500001D0500001D05000031
S2140002401D0500001D0500001D0500001D05000021
S2140002501D0500001D0500001D0500001D05000011
S2140002601D0500001D0500001D0500001D05000001
S2140002701D0500001D0500001D0500001D050000F1
S2140002801D0500001D0500001D0500001D050000E1
S2140002901D0500001D0500001D0500001D050000D1
S2140002A01D0500001D0500001D0500001D050000C1
S2140002B01D0500001D0500001D0500001D050000B1
S2140002C01D0500001D0500001D0500001D050000A1
S2140002D01D0500001D0500001D0500001D05000091
S2140002E01D0500001D0500001D0500001D05000081
S2140002F01D0500001D0500001D0500001D05000071
S2140003001D0500001D0500001D0500001D05000060
S2140003101D0500001D0500001D0500001D05000050
S2140003201D0500001D0500001D0500001D05000040
S2140003301D0500001D0500001D0500001D05000030
S2140003401D0500001D0500001D0500001D05000020
S2140003501D0500001D0500001D0500001D05000010
S2140003601D0500001D0500001D0500001D05000000
S2140003701D0500001D0500001D0500001D050000F0
S2140003801D0500001D0500001D0500001D050000E0
S2140003901D0500001D0500001D0500001D050000D0
S2140003A01D0500001D0500001D0500001D050000C0
S2140003B01D0500001D0500001D0500001D050000B0
S2140003C01D0500001D0500001D0500001D050000A0
S2140003D01D0500001D0500001D0500001D05000090
S2140003E01D0500001D0500001D0500001D05000080
S2140003F01D0500001D0500001D050000FFFFFFFF96
S214000400FFFFFFFFFFFFFFFFFFFFFFFFFE7FFFFF78
S214000410044B05481B1A062B02D9044B03B1184798
S214000420704700BF57A1FF1F54A1FF1F0000000028
S21400043005490648091A891001EBD171491002D006
S214000440034B03B11847704754A1FF1F54A1FF1F69
S2140004500000000010B5064C237843B9FFF7D8FF1C
S214000460044B13B10448AFF300800123237010BD82
S2140004700000002000000000ECFF000008B5084B5C
S2140004801BB108490848AFF300800848036813B951
S214000490BDE80840CCE7064B002BF9D09847F7E7B5
S2140004A00000000004000020ECFF000050A1FF1F29
S2140004B00000000072B64FF000014FF000024FF04F
S2140004C000034FF000044FF000054FF000064FF019
S2140004D00007B846B946BA46BB46BC460A490B4A68
S2140004E0521A013A05DD0020042308601944043A34
S2140004F0FBDA07488546074880470748804762B6C4
S2140005000CF0BAF8FEE700000090FF1F0040002045
S21400051000400020A5D50000CDD40000FFF7FEBFA8
S214000520054A537AB3FA83F35B094370937AB3FAB6
S21400053083F35B0983707047A002002003680B609A
S21400054043681360704703680B6043681360704726
S21400055010B582B05E4B997AB1FA81F25209DA721E
S2140005605B7A002B40F09980594B1A7301225A721D
S2140005704B1CDBB2632B40F29B800022544B9A72DA
S214000580002900F09880534B1A78534B93F80D339C
S214000590012A14BF00210121994206D0032A04D063
S2140005A0002000214D4AC2E900014A4A13704B4C14
S2140005B000224B4BD4E900010DF064F8C4E90001B9
S2140005C0454C0DF0C5FC204490F83F3284F8A43228
S2140005D0012204F5297110460BF048FA414A102111
S2140005E0002007F0E3FA404A1121002007F0DEFA67
S2140005F03E4A0C21002007F0D9FA3D4A0D21002082
S21400060007F0D4FA3B4A0221002007F0CFFA3A4A14
S2140006100321002007F0CAFA384A0E21002007F00E
S214000620C5FA374A0F21002007F0C0FA354A0421E0
S214000630002007F0BBFA344A0521002007F0B6FA7E
S214000640324A0621002007F0B1FA314A072100207D
S21400065007F0ACFA2F4A0821002007F0A7FA2E4A26
S2140006600921002007F0A2FA2C4A0A21002007F0F0
S2140006709DFA2B4A0B21002007F098FA01230193DC
S214000680002100914FF480430A46032009F09CFDA8
S2140006904FF07C53A36002B010BD0133DBB2132BC6
S2140006A003D900220A4B5A7262E7094A53725FE77F
S2140006B0074A937264E70848084991F81B3180F8A6
S2140006C00D335A22BB3100F510700FF05FF95AE770
S2140006D0A0020020080C0020D8070020600500209B
S2140006E00000F03F2C040020580C0020B002002030
S2140006F04803002040070020540200200C0C002075
S21400070008020020A40C00208C070020FC02002019
S214000710E00300207804002094030020C404002096
S214000720100500202DE9F04F2DED068B8BB0B44B55
S21400073093F81C3143B9B34B5A68B14BD3F89C308D
S214000740D31A09EE903A01E0DFEDAF9AAC4CAD4B10
S2140007505B68C4F89C30002384F81C31AB480CF06E
S214000760E9F8C0F3803AAA4B83F80EA320695866CE
S21400077094F815317BB9F8EE697A9FEDA67A67EEA4
S214000780877A94ED237A67EE877A94ED057A77EE8A
S214000790877AC4ED057A9A4B93F8163183B9984B4D
S2140007A0F8EE697A9FED9B7A67EE877A93ED247A66
S2140007B067EE877A93ED067A77EE877AC3ED067A48
S2140007C00DF0BEF89FED8C1B41EC100B0DF050FEAB
S2140007D055EC104B904BD3E9022310EE100A294635
S2140007E00DF078FB68B98C4F0126D7E91223204616
S2140007F029460DF06FFB28B9013640371F2EF4D17D
S21400080001E00026013EDFF81082B70108EB07037F
S214000810D3E90223204629460CF032FF04460D4653
S21400082018F80730012B33D0022B62D0744A784B6D
S214000830D2ED058AD3ED1A7A78EEE78A92ED069A1B
S214000840D3ED1B7A39EE679A586E0DF079F89FED66
S2140008506A1B41EC100B0DF00BFE55EC104B6E4B6B
S214000860D3E9022310EE100A29460DF033FB0028C8
S2140008707CD1694F0126D7E91223204629460DF080
S21400088029FB002873D1013640371F2EF3D16FE0C5
S214000890614B03EB8616D6E90689D6E904230DF0EC
S2140008A0D1F9CDE904015A4C42464B46D6E90A0135
S2140008B00CF0E6FEDDE904230DF09AF842464B46BE
S2140008C00CF0E0FE0DF06CFBA066D6E90889424607
S2140008D04B46D6E90C010CF0D3FEDDE904230DF0FF
S2140008E087F842464B460CF0CDFE0DF059FBE0660D
S2140008F09CE7494B03EB8616D6E9048996F938003F
S2140009000DF00CF822462B460DF072F842464B4688
S2140009100DF098F9D6E90A230CF0B4FE41EC180B5A
S21400092041EC100B0DF018FD394C53EC102B4046E3
S21400093049460DF05DF8D6E906230CF0A3FE0DF04F
S2140009402FFBA066B0EE480AF0EE680A0DF048FDF0
S21400095053EC102B404649460DF04AF8D6E90823DA
S2140009600CF090FE0DF01CFBE0665FE70026013EF3
S214000970B301294AD35C012B50D0022B00F09180A2
S214000980234B93ED1C8A28EE888AD3ED1D7A69EEF8
S214000990277A38EE278A1A4B93F81731002B00F087
S2140009A0CE80174BDA691A4B9A67194B586E0CF0C3
S2140009B0C7FF9FED111B41EC100B0DF059FD55ECD8
S2140009C0104B154BD3E9022310EE100A29460DF002
S2140009D081FA002840F0D4800F4F0126D7E9122371
S2140009E0204629460DF076FA002840F0CA800136E7
S2140009F040371F2EF2D1C5E00E684C35DA4DA140C7
S214000A0060050020A00200200000000000F10F405A
S214000A10D80700200AD7233C6895FF1F544C04EBE8
S214000A208614D4E90623D4E90A010CF029FE06460A
S214000A300F46D4E90823D4E90C010CF021FE8046C9
S214000A40894632463B46304639460CF0D1FF0446CE
S214000A500D4642464B46404649460CF0C9FF024604
S214000A600B46204629460CF00DFE41EC100B0DF00F
S214000A7063FD53EC102B3F4C8DED040B404649466E
S214000A800DF0E0F80DF08CFA2067DDE9042330461F
S214000A9039460DF0D7F80DF083FA80F00040606715
S214000AA06EE7334F07EB8617D7E902232046294621
S214000AB00CF0E6FD04460D4697F938000CF02EFFC4
S214000AC0002200230DF024FA18B3D7E904232046A9
S214000AD029460DF0B7F8D7E90A230CF0D3FD41EC10
S214000AE01A0BB0EE4A0AF0EE6A0A0DF035FC214CFD
S214000AF051EC100B0DF054FA2067B0EE4A0AF0EEF7
S214000B006A0A0DF06DFC51EC100B0DF049FA6067A7
S214000B1036E7204605F10041154B03EB8616D6E96D
S214000B2004230DF08FF8D6E90A230CF0ABFD0EA3D4
S214000B30D3E900230CF0A6FD41EC1A0BD1E7F8EE42
S214000B40697A9FED0D7A67EE877A0C4B93ED257ADE
S214000B5067EE877A93ED077A77EE877A054BC3EDD3
S214000B601E7A22E7AFF30080112D4454FB21094082
S214000B706895FF1FD80700200AD7233C6005002091
S214000B800026013EB301EA4AD35C012B00F0368210
S214000B90022B00F07782E74BD3ED207AF1EE677AEE
S214000BA0C3ED217AE44B93F81831002B00F0B9829C
S214000BB0E14B1A6ADF4BC3F88820E04AD2F880304F
S214000BC0DC4CC3F3800384F80F33D2F88030C3F3D1
S214000BD0400384F811331368C3F3402384F81033BA
S214000BE05368A4F83E32116821F40071116012684F
S214000BF0D14DB5F8B8209B1A1BB207EE903AF8EE26
S214000C00E77A9FEDCF7A67EE877A95ED097A77EEE9
S214000C10877AC5ED097A9FEDCB7A67EE877A9FEDE6
S214000C20CA7A67EE877A234617EE902A43F88C2F07
S214000C3004F19002019204F17802009204F1880215
S214000C4004F17C0104F1840003F03EFAD4ED8D7AC1
S214000C50C4ED257AD4F83832C4F89830D4F82C325B
S214000C60C4F89C30D4F83072C4F8A070D4F824B21B
S214000C70C4F8A4B0D4F82832C4F8A830D4F81C328B
S214000C80C4F8AC30D4F82062C4F8B060D4F814923B
S214000C90C4F8B490D4F81832C4F8B830D4F80C328B
S214000CA0C4F8BC30D4F81002C4F8C000D4F80482EB
S214000CB0C4F8C480D4F80832C4F8C830D4F8FC317C
S214000CC0C4F8CC30D4F80012C4F8D010D4F8F4E14C
S214000CD0C4F8D4E0D4F8F831C4F8D830D4F8EC31FD
S214000CE0C4F8DC30D4F8F021C4F8E020D4F8E4C12D
S214000CF0C4F8E4C0D4F8E831C4F8E830D4F8DC31FD
S214000D00C4F8EC30D4F8E031C4F8F03094ED197A39
S214000D1084ED3D7AC4ED3E7AC4F8FCB0C4F8009188
S214000D20C4F80481C4F808E1C4F80CC1D4F890C033
S214000D30C4F810C1C4F81471C4F81861C4F81C01D2
S214000D40C4F82011C4F82421C4F8283104F5987397
S214000D5004F5967204F5887104F1F40002F0D4FCF0
S214000D6095F81931002B40F0EF81012285F8192102
S214000D7085F81A2100248DF81C40ADF81E4007AAFD
S214000D802146204602F0C1FE204602F077FF0DF114
S214000D901A022146204602F087FFBDF81A30654A3F
S214000DA0536007EE903AF8EE677A9FED687A77EE32
S214000DB0877A604BC3ED4D7A0026354615B35D4BFA
S214000DC0D3ED4C6AD3ED4B7A93ED197A37EEC77AAA
S214000DD0F3EE047A77EEC77A9FED5D7A67EE877A50
S214000DE093ED247A36EEC77A9FED5A6A27EE067A96
S214000DF077EE877A9FED587A66EE876A77EEA67A60
S214000E00C3ED4D7A554D28460BF094FD494CC0F382
S214000E10801084F8120328460BF08CFDC0F3C01037
S214000E2084F8130328460BF085FDC0F3002084F8F1
S214000E30140328460BF07EFDC0F3402084F815030B
S214000E4028460BF077FDC0F3802084F8160328466A
S214000E500BF070FDC0F3C02084F8170328460BF093
S214000E6069FDC0F3003084F8180328460BF062FDD5
S214000E70C0F3403084F81903002E40D094F81713BE
S214000E8094F818339B0103EB411394F812130B44A8
S214000E9094F8161303EB011394F8151303EBC10330
S214000EA094F8141303EB810394F8131303EB410334
S214000EB003EBC01307EE903AFAEECF7A94ED247A5D
S214000EC037EEC77A1C4B93ED0C6ADFED256A67EEAA
S214000ED0266A76EE866ADFED205A67EEA57A76EE0B
S214000EE0A77AC4ED4D7ADFED1F7A67EE277A9FED7D
S214000EF01E7A67EE877A77EE867AC3ED0C7A174805
S214000F000BF018FDC0F3C0300A4B83F81A03002814
S214000F104DD0094BD3ED0A7A78EE677ADFED0E6A8C
S214000F2067EEA67A9FED117A67EE877A20E000BF1B
S214000F306895FF1FD80700206005002000A003402A
S214000F40EC51B83D35FA8EBCCDCC4C3E000000448A
S214000F5000803BC5002099450000C84200F10F40C4
S214000F6000409C45000048420AD7233CCDCC4C3D6F
S214000F70B6EE007A28EE077A77EE877AD44A92EDB4
S214000F80237A77EEC77A93ED0B7A37EEC77A27EE99
S214000F90267A27EE267ADFEDCF6A67EEA66A37EE68
S214000FA0267A82ED767A83ED0A8AC3ED0B7AC84BF1
S214000FB0586E0CF0C5FC9FEDC21B41EC100B0DF0FB
S214000FC057FA57EC106BC44BD3E9022310EE100A05
S214000FD039460CF07FFF002840F08481BE4D012486
S214000FE0D5E91223304639460CF074FF002840F04D
S214000FF07A81013440351F2CF2D175E1B64C04EBF2
S2140010008614D4E90623D4E90A010CF039FB064617
S2140010100F46D4E90823D4E90C010CF031FB8046D6
S214001020894632463B46304639460CF0E1FC0446DB
S2140010300D4642464B46404649460CF0D9FC024611
S2140010400B46204629460CF01DFB41EC100B0DF01C
S21400105073FA53EC102B9E4C8DED040B404649461C
S2140010600CF0F0FD0CF09CFFE067DDE90423304651
S21400107039460CF0E7FD0CF093FF80F00040C4F812
S214001080800088E5944F07EB8617D7E902232046B1
S21400109029460CF0F5FA04460D4697F938000CF090
S2140010A03DFC002200230CF033FF20B3D7E90423D5
S2140010B0204629460CF0C6FDD7E90A230CF0E2FAD2
S2140010C041EC1A0BB0EE4A0AF0EE6A0A0DF044F94B
S2140010D07F4C51EC100B0CF063FFE067B0EE4A0A51
S2140010E0F0EE6A0A0DF07CF951EC100B0CF058FF8C
S2140010F0C4F880004FE5204605F10041764B03EB2F
S2140011008616D6E904230CF09DFDD6E90A230CF0DA
S214001110B9FA6DA3D3E900230CF0B4FA41EC1A0B2C
S214001120D0E7F8EE697ADFED6D9A67EEA97A6C4B38
S21400113093ED267A67EE877A93ED087A77EE877ACC
S214001140634BC3ED227A38E5654B93F81A31012BD1
S2140011500AD0022B48D0BAF1000F40F08880012256
S2140011605F4B83F81A2105E6BAF1000F01F01886E6
S214001170574B93ED4B6AD3ED196A76EE665A93EDAC
S2140011804C7AD3ED247AB4EEE77AF1EE10FA12D860
S214001190B3EE055AF4EEC55AF1EE10FA0BD8B4EEDB
S2140011A0666AF1EE10FA06D002224D4B83F81A2139
S2140011B0002601253EE0B4EEE77AF1EE10FA0CDCEC
S2140011C0F3EE057AF4EEE75AF1EE10FA05DCB4EE2B
S2140011D0666AF1EE10FA7FF4CDAD0322404B83F839
S2140011E01A210126002525E0BAF1000F3AD0384B27
S2140011F093ED4C7AD3ED247AB4EEE77AF1EE10FA5A
S21400120012DC93ED4B7AD3ED197A37EE676AF3EE7C
S214001210056AB4EEE66AF1EE10FA05DCB4EE677A1B
S214001220F1EE10FA41F0D58503222D4B83F81A21F2
S2140012300126002500248DF81C40ADF81E4007AAA4
S2140012402146204602F061FC204602F017FD0DF113
S2140012501A022146204602F027FDBDF81A201C4B34
S2140012605A60ABE501221E4B83F81A2182E5184B23
S21400127093ED4C7AD3ED247AB4EEE77AF1EE10FAD9
S21400128001F2828593ED4B7AD3ED197A37EE676AD1
S214001290F3EE056AB4EEE66AF1EE10FA01F278852E
S2140012A0B4EE677AF1EE10FA01F0768502220C4B66
S2140012B083F81A2100260125BCE700BFAFF30080A3
S2140012C00E684C35DA4DA140112D4454FB210940DF
S2140012D0D807002000007A446895FF1F0AD7233CF1
S2140012E0600500200024013CA301BD4AD35C012B0D
S2140012F028D0022B6CD0BB4B586E0CF021FB9FED18
S214001300B41B41EC100B0DF0B3F857EC106BB44B5C
S214001310D3E9022310EE100A39460CF0DBFD002854
S21400132040F0A680AE4D0124D5E91223304639465A
S2140013300CF0D0FD002840F09C80013440351F2C76
S214001340F2D197E0A64B03EB8414D4E90623D4E944
S2140013500A010CF095F906460F46D4E90823D4E9AD
S2140013600C010CF08DF98046894632463B463046E5
S21400137039460CF03DFB04460D4642464B46404679
S21400138049460CF035FB02460B46204629460CF033
S21400139079F941EC100B0DF0CFF85BEC10AB914CEB
S2140013A010EE102A5B46404649460CF04BFC0CF00B
S2140013B0F7FDC4F8380152465B46304639460CF015
S2140013C041FC0CF0EDFD80F00040C4F83C0192E7D3
S2140013D0834D05EB8415D5E90223304639460CF0DB
S2140013E04FF906460F4695F938000CF097FA00229A
S2140013F000230CF08DFD28B3D5E90423304639468A
S2140014000CF020FCD5E90A230CF03CF941EC1A0B51
S214001410B0EE4A0AF0EE6A0A0CF09EFF714C51ECF0
S214001420100B0CF0BDFDC4F83801B0EE4A0AF0EE21
S2140014306A0A0CF0D5FF51EC100B0CF0B1FDC4F8A5
S2140014403C0158E7304607F10041654B03EB841436
S214001450D4E904230CF0F6FBD4E90A230CF012F9C5
S2140014605DA3D3E900230CF00DF941EC1A0BCFE78E
S2140014700024013CDFF86881A50108EB0503D3E9E9
S2140014800223304639460CF0FBF806460F4618F89D
S2140014900530012B29D0022B5AD0524BD3F894009A
S2140014A00CF04EFA9FED4A1B41EC100B0CF0E0FFDF
S2140014B057EC106B4A4BD3E9022310EE100A39465C
S2140014C00CF008FD002840F08F80454D0124D5E93A
S2140014D01223304639460CF0FDFC002840F085808B
S2140014E0013440351F2CF2D180E03D4B03EB8414D1
S2140014F0D4E90689D4E904230CF0A4FB06460F467B
S214001500384D42464B46D4E90A010CF0B9F832464B
S2140015103B460CF06DFA42464B460CF0B3F80CF026
S2140015203FFDC5F84001D4E9088942464B46D4E958
S2140015300C010CF0A5F832463B460CF059FA424630
S2140015404B460CF09FF80CF02BFDC5F84401A4E7C1
S214001550234B03EB8414D4E9048994F938000CF087
S214001560DDF932463B460CF043FA42464B460CF059
S21400157069FBD4E90A230CF085F841EC1A0B41EC20
S214001580100B0CF0E9FE174D53EC102B4046494665
S2140015900CF02EFAD4E906230CF074F80CF000FDDB
S2140015A0C5F84001B0EE4A0AF0EE6A0A0CF018FFE1
S2140015B053EC102B404649460CF01AFAD4E908239F
S2140015C00CF060F80CF0ECFCC5F8440165E700BFD1
S2140015D00E684C35DA4DA140112D4454FB210940CC
S2140015E06895FF1FD80700200024013CA301BE4ACF
S2140015F0D35C012B29D0022B6DD0BC4BD3F89400C2
S2140016000CF09EF99FEDB41B41EC100B0CF030FF74
S21400161057EC106BB44BD3E9022310EE100A394690
S2140016200CF058FC002840F0A680AF4D0124D5E908
S2140016301223304639460CF04DFC002840F09C80C2
S214001640013440351F2CF2D197E0A74B03EB8414EE
S214001650D4E90623D4E90A010CF012F806460F4630
S214001660D4E90823D4E90C010CF00AF88046894630
S21400167032463B46304639460CF0BAF904460D462B
S21400168042464B46404649460CF0B2F902460B46E7
S214001690204629460BF0F6FF41EC100B0CF04CFFF1
S2140016A05BEC10AB914C10EE102A5B464046494668
S2140016B00CF0C8FA0CF074FCC4F8480152465B46BD
S2140016C0304639460CF0BEFA0CF06AFC80F000405A
S2140016D0C4F84C0191E7844D05EB8415D5E9022347
S2140016E0304639460BF0CCFF06460F4695F93800D3
S2140016F00CF014F9002200230CF00AFC28B3D5E9FC
S2140017000423304639460CF09DFAD5E90A230BF03F
S214001710B9FF41EC1A0BB0EE4A0AF0EE6A0A0CF07A
S2140017201BFE724C51EC100B0CF03AFCC4F848014E
S214001730B0EE4A0AF0EE6A0A0CF052FE51EC100BBC
S2140017400CF02EFCC4F84C0157E7304607F1004178
S214001750654B03EB8414D4E904230CF073FAD4E944
S2140017600A230BF08FFF5EA3D3E900230BF08AFF5A
S21400177041EC1A0BCFE70024013CDFF86C81A50191
S21400178008EB0503D3E90223304639460BF078FF11
S21400179006460F4618F80530012B29D0022B5AD0E2
S2140017A0524BD3F8A4000CF0CBF89FED4B1B41EC4A
S2140017B0100B0CF05DFE57EC106B4B4BD3E902237D
S2140017C010EE100A39460CF085FB002840F0908099
S2140017D0454D0124D5E91223304639460CF07AFBF4
S2140017E0002840F08680013440351F2CF2D181E07D
S2140017F03D4B03EB8414D4E90689D4E904230CF0AA
S21400180021FA06460F46394D42464B46D4E90A01B0
S2140018100BF036FF32463B460CF0EAF842464B46A3
S2140018200BF030FF0CF0BCFBC5F85001D4E908897A
S21400183042464B46D4E90C010BF022FF32463B46AB
S2140018400CF0D6F842464B460BF01CFF0CF0A8FBFB
S214001850C5F85401A4E7244B03EB8414D4E90489A7
S21400186094F938000CF05AF832463B460CF0C0F8B3
S21400187042464B460CF0E6F9D4E90A230BF002FF89
S21400188041EC1A0B41EC100B0CF066FD174D53ECB7
S214001890102B404649460CF0ABF8D4E906230BF073
S2140018A0F1FE0CF07DFBC5F85001B0EE4A0AF0EEF2
S2140018B06A0A0CF095FD53EC102B404649460CF096
S2140018C097F8D4E908230BF0DDFE0CF069FBC5F8A9
S2140018D0540165E7AFF300800E684C35DA4DA14041
S2140018E0112D4454FB2109406895FF1FD80700209E
S2140018F00024013CA301BE4AD35C012B29D0022B55
S2140019006DD0BC4BD3F8A4000CF01AF89FEDB41BB6
S21400191041EC100B0CF0ACFD57EC106BB44BD3E95C
S214001920022310EE100A39460CF0D4FA002840F0D4
S214001930A680AF4D0124D5E91223304639460CF077
S214001940C9FA002840F09C80013440351F2CF2D1A3
S21400195097E0A74B03EB8414D4E90623D4E90A01E5
S2140019600BF08EFE06460F46D4E90823D4E90C0198
S2140019700BF086FE8046894632463B463046394660
S2140019800CF036F804460D4642464B46404649465D
S2140019900CF02EF802460B46204629460BF072FE47
S2140019A041EC100B0CF0C8FD5BEC10AB914C10EE4C
S2140019B0102A5B46404649460CF044F90CF0F0FA13
S2140019C0C4F8580152465B46304639460CF03AF9A0
S2140019D00CF0E6FA80F00040C4F85C0191E7844D14
S2140019E005EB8415D5E90223304639460BF048FE50
S2140019F006460F4695F938000BF090FF00220023AC
S214001A000CF086FA28B3D5E90423304639460CF0A4
S214001A1019F9D5E90A230BF035FE41EC1A0BB0EEA6
S214001A204A0AF0EE6A0A0CF097FC724C51EC100B66
S214001A300CF0B6FAC4F85801B0EE4A0AF0EE6A0A9C
S214001A400CF0CEFC51EC100B0CF0AAFAC4F85C01BA
S214001A5057E7304607F10041654B03EB8414D4E9A1
S214001A6004230CF0EFF8D4E90A230BF00BFE5EA378
S214001A70D3E900230BF006FE41EC1A0BCFE7002457
S214001A80013CDFF86C81A50108EB0503D3E90223CE
S214001A90304639460BF0F4FD06460F4618F805307A
S214001AA0012B29D0022B5AD0524BD3F8B4000BF09E
S214001AB047FF9FED4B1B41EC100B0CF0D9FC57EC8D
S214001AC0106B4B4BD3E9022310EE100A39460CF08C
S214001AD001FA002840F09080454D0124D5E91223F4
S214001AE0304639460CF0F6F9002840F0868001347E
S214001AF040351F2CF2D181E03D4B03EB8414D4E932
S214001B000689D4E904230CF09DF806460F46394DA5
S214001B1042464B46D4E90A010BF0B2FD32463B463C
S214001B200BF066FF42464B460BF0ACFD0CF038FA65
S214001B30C5F86001D4E9088942464B46D4E90C0151
S214001B400BF09EFD32463B460BF052FF42464B469C
S214001B500BF098FD0CF024FAC5F86401A4E7244BBA
S214001B6003EB8414D4E9048994F938000BF0D6FE0C
S214001B7032463B460BF03CFF42464B460CF062F8C2
S214001B80D4E90A230BF07EFD41EC1A0B41EC100B56
S214001B900CF0E2FB174D53EC102B404649460BF079
S214001BA027FFD4E906230BF06DFD0CF0F9F9C5F814
S214001BB06001B0EE4A0AF0EE6A0A0CF011FC53EC33
S214001BC0102B404649460BF013FFD4E908230BF0D0
S214001BD059FD0CF0E5F9C5F8640165E7AFF3008040
S214001BE00E684C35DA4DA140112D4454FB210940B6
S214001BF06895FF1FD80700200024013CA301BE4AB9
S214001C00D35C012B29D0022B6DD0BC4BD3F8B4008B
S214001C100BF096FE9FEDB41B41EC100B0CF028FC6D
S214001C2057EC106BB44BD3E9022310EE100A39467A
S214001C300CF050F9002840F0A680AF4D0124D5E9FD
S214001C401223304639460CF045F9002840F09C80B7
S214001C50013440351F2CF2D197E0A74B03EB8414D8
S214001C60D4E90623D4E90A010BF00AFD06460F461E
S214001C70D4E90823D4E90C010BF002FD804689461E
S214001C8032463B46304639460BF0B2FE04460D4619
S214001C9042464B46404649460BF0AAFE02460B46D5
S214001CA0204629460BF0EEFC41EC100B0CF044FCF1
S214001CB05BEC10AB914C10EE102A5B464046494652
S214001CC00BF0C0FF0CF06CF9C4F8680152465B4696
S214001CD0304639460BF0B6FF0CF062F980F0004053
S214001CE0C4F86C0191E7844D05EB8415D5E9022311
S214001CF0304639460BF0C4FC06460F4695F93800C8
S214001D000BF00CFE002200230CF002F928B3D5E9F4
S214001D100423304639460BF095FFD5E90A230BF02D
S214001D20B1FC41EC1A0BB0EE4A0AF0EE6A0A0CF06F
S214001D3013FB724C51EC100B0CF032F9C4F868012E
S214001D40B0EE4A0AF0EE6A0A0CF04AFB51EC100BB1
S214001D500CF026F9C4F86C0157E7304607F100414D
S214001D60654B03EB8414D4E904230BF06BFFD4E932
S214001D700A230BF087FC5EA3D3E900230BF082FC5A
S214001D8041EC1A0BCFE70024013CDFF86C81A5017B
S214001D9008EB0503D3E90223304639460BF070FC06
S214001DA006460F4618F80530012B29D0022B5AD0CC
S214001DB0524BD3F8C4000BF0C3FD9FED4B1B41EC18
S214001DC0100B0CF055FB57EC106B4B4BD3E9022372
S214001DD010EE100A39460CF07DF8002840F090808E
S214001DE0454D0124D5E91223304639460CF072F8E9
S214001DF0002840F08680013440351F2CF2D181E067
S214001E003D4B03EB8414D4E90689D4E904230BF094
S214001E1019FF06460F46394D42464B46D4E90A019D
S214001E200BF02EFC32463B460BF0E2FD42464B469C
S214001E300BF028FC0CF0B4F8C5F87001D4E908895A
S214001E4042464B46D4E90C010BF01AFC32463B46A0
S214001E500BF0CEFD42464B460BF014FC0CF0A0F8FF
S214001E60C5F87401A4E7244B03EB8414D4E9048971
S214001E7094F938000BF052FD32463B460BF0B8FDA5
S214001E8042464B460BF0DEFED4E90A230BF0FAFB83
S214001E9041EC1A0B41EC100B0CF05EFA174D53ECAC
S214001EA0102B404649460BF0A3FDD4E906230BF061
S214001EB0E9FB0CF075F8C5F87001B0EE4A0AF0EED2
S214001EC06A0A0CF08DFA53EC102B404649460BF08C
S214001ED08FFDD4E908230BF0D5FB0CF061F8C5F8AC
S214001EE0740165E7AFF300800E684C35DA4DA1400B
S214001EF0112D4454FB2109406895FF1FD807002088
S214001F000024013CA301BE4AD35C012B29D0022B3E
S214001F106DD0BC4BD3F8C4000BF012FD9FEDB41B84
S214001F2041EC100B0CF0A4FA57EC106BB44BD3E951
S214001F30022310EE100A39460BF0CCFF002840F0C2
S214001F40A680AF4D0124D5E91223304639460BF062
S214001F50C1FF002840F09C80013440351F2CF2D190
S214001F6097E0A74B03EB8414D4E90623D4E90A01CF
S214001F700BF086FB06460F46D4E90823D4E90C018D
S214001F800BF07EFB8046894632463B463046394655
S214001F900BF02EFD04460D4642464B46404649464B
S214001FA00BF026FD02460B46204629460BF06AFB40
S214001FB041EC100B0CF0C0FA5BEC10AB914C10EE41
S214001FC0102A5B46404649460BF03CFE0BF0E8FF05
S214001FD0C4F8780152465B46304639460BF032FE6E
S214001FE00BF0DEFF80F00040C4F87C0191E7844DE2
S214001FF005EB8415D5E90223304639460BF040FB45
S21400200006460F4695F938000BF088FC00220023A0
S2140020100BF07EFF28B3D5E90423304639460BF093
S21400202011FED5E90A230BF02DFB41EC1A0BB0EE9E
S2140020304A0AF0EE6A0A0CF08FF9724C51EC100B5B
S2140020400BF0AEFFC4F87801B0EE4A0AF0EE6A0A6A
S2140020500CF0C6F951EC100B0BF0A2FFC4F87C0193
S21400206057E7304607F10041654B03EB8414D4E98B
S21400207004230BF0E7FDD4E90A230BF003FB5EA371
S214002080D3E900230BF0FEFA41EC1A0BCFE700244D
S214002090013CDFF86C81A50108EB0503D3E90223B8
S2140020A0304639460BF0ECFA06460F4618F805306F
S2140020B0012B29D0022B5AD0524BD3F8D4000BF068
S2140020C03FFC9FED4B1B41EC100B0CF0D1F957EC8D
S2140020D0106B4B4BD3E9022310EE100A39460BF077
S2140020E0F9FE002840F09080454D0124D5E91223E2
S2140020F0304639460BF0EEFE002840F0868001346C
S21400210040351F2CF2D181E03D4B03EB8414D4E91B
S2140021100689D4E904230BF095FD06460F46394D93
S21400212042464B46D4E90A010BF0AAFA32463B4631
S2140021300BF05EFC42464B460BF0A4FA0BF030FF69
S214002140C5F88001D4E9088942464B46D4E90C011B
S2140021500BF096FA32463B460BF04AFC42464B469C
S2140021600BF090FA0BF01CFFC5F88401A4E7244B93
S21400217003EB8414D4E9048994F938000BF0CEFB01
S21400218032463B460BF034FC42464B460BF05AFDBB
S214002190D4E90A230BF076FA41EC1A0B41EC100B4B
S2140021A00CF0DAF8174D53EC102B404649460BF06E
S2140021B01FFCD4E906230BF065FA0BF0F1FEC5F818
S2140021C08001B0EE4A0AF0EE6A0A0CF009F953EC08
S2140021D0102B404649460BF00BFCD4E908230BF0C5
S2140021E051FA0BF0DDFEC5F8840165E7AFF3008019
S2140021F00E684C35DA4DA140112D4454FB210940A0
S2140022006895FF1FD80700200024013CA301BE4AA2
S214002210D35C012B29D0022B6DD0BC4BD3F8D40055
S2140022200BF08EFB9FEDB41B41EC100B0CF020F96D
S21400223057EC106BB44BD3E9022310EE100A394664
S2140022400BF048FE002840F0A680AF4D0124D5E9EB
S2140022501223304639460BF03DFE002840F09C80A5
S214002260013440351F2CF2D197E0A74B03EB8414C2
S214002270D4E90623D4E90A010BF002FA06460F4613
S214002280D4E90823D4E90C010BF0FAF98046894614
S21400229032463B46304639460BF0AAFB04460D460E
S2140022A042464B46404649460BF0A2FB02460B46CA
S2140022B0204629460BF0E6F941EC100B0CF03CF9F1
S2140022C05BEC10AB914C10EE102A5B46404649463C
S2140022D00BF0B8FC0BF064FEC4F8880152465B466F
S2140022E0304639460BF0AEFC0BF05AFE80F000404C
S2140022F0C4F88C0191E7844D05EB8415D5E90223DB
S214002300304639460BF0BCF906460F4695F93800BC
S2140023100BF004FB002200230BF0FAFD28B3D5E9EE
S2140023200423304639460BF08DFCD5E90A230BF022
S214002330A9F941EC1A0BB0EE4A0AF0EE6A0A0CF064
S2140023400BF8724C51EC100B0BF02AFEC4F8880107
S214002350B0EE4A0AF0EE6A0A0CF042F851EC100BA6
S2140023600BF01EFEC4F88C0157E7304607F100411B
S214002370654B03EB8414D4E904230BF063FCD4E927
S2140023800A230BF07FF95EA3D3E900230BF07AF95A
S21400239041EC1A0BCFE70024013CDFF86C81A50165
S2140023A008EB0503D3E90223304639460BF068F9FB
S2140023B006460F4618F80530012B29D0022B5AD0B6
S2140023C0524BD3F8E4000BF0BBFA9FED4B1B41ECED
S2140023D0100B0CF04DF857EC106B4B4BD3E9022367
S2140023E010EE100A39460BF075FD002840F090807C
S2140023F0454D0124D5E91223304639460BF06AFDD7
S214002400002840F08680013440351F2CF2D181E050
S2140024103D4B03EB8414D4E90689D4E904230BF07E
S21400242011FC06460F46394D42464B46D4E90A0192
S2140024300BF026F932463B460BF0DAFA42464B469C
S2140024400BF020F90BF0ACFDC5F89001D4E9088933
S21400245042464B46D4E90C010BF012F932463B4695
S2140024600BF0C6FA42464B460BF00CF90BF098FD03
S214002470C5F89401A4E7244B03EB8414D4E904893B
S21400248094F938000BF04AFA32463B460BF0B0FAA5
S21400249042464B460BF0D6FBD4E90A230BF0F2F883
S2140024A041EC1A0B41EC100B0BF056FF174D53EC9A
S2140024B0102B404649460BF09BFAD4E906230BF056
S2140024C0E1F80BF06DFDC5F89001B0EE4A0AF0EEAB
S2140024D06A0A0BF085FF53EC102B404649460BF07A
S2140024E087FAD4E908230BF0CDF80BF059FDC5F8B0
S2140024F0940165E7AFF300800E684C35DA4DA140D5
S214002500112D4454FB2109406895FF1FD807002071
S2140025100024013CA301664AD35C012B29D0022B80
S2140025206DD0644BD3F8E4000BF00AFA9FED5C1B09
S21400253041EC100B0BF09CFF57EC106B5C4BD3E997
S214002540022310EE100A39460BF0C4FC002840F0B7
S214002550B380574D0124D5E91223304639460BF097
S214002560B9FC002840F0A980013440351F2CF2D178
S214002570A4E04F4B03EB8414D4E90623D4E90A0104
S2140025800BF07EF806460F46D4E90823D4E90C0182
S2140025900BF076F88046894632463B46304639464A
S2140025A00BF026FA04460D4642464B464046494640
S2140025B00BF01EFA02460B46204629460BF062F840
S2140025C041EC100B0BF0B8FF5BEC10AB394C10EE87
S2140025D0102A5B46404649460BF034FB0BF0E0FC05
S2140025E0C4F8980152465B46304639460BF02AFB43
S2140025F00BF0D6FC80F00040C4F89C0191E72C4D0F
S21400260005EB8415D5E90223304639460BF038F839
S21400261006460F4695F938000BF080F90022002395
S2140026200BF076FC28B3D5E90423304639460BF088
S21400263009FBD5E90A230BF025F841EC1A0BB0EE9E
S2140026404A0AF0EE6A0A0BF087FE1A4C51EC100BA1
S2140026500BF0A6FCC4F89801B0EE4A0AF0EE6A0A3F
S2140026600BF0BEFE51EC100B0BF09AFCC4F89C016C
S21400267057E7304607F100410D4B03EB8414D4E9CD
S21400268004230BF0DFFAD4E90A230AF0FBFF06A3C3
S214002690D3E900230AF0F6FF41EC1A0BCFE700BFA0
S2140026A00E684C35DA4DA140112D4454FB210940EB
S2140026B06895FF1FD80700200024013CDFF8E08261
S2140026C0A50108EB0503D3E90223304639460AF094
S2140026D0D7FF06460F4618F80530012B00F0CD80D0
S2140026E0022B00F0FD80A84D6B6EC5F8A83185ED75
S2140026F06B8A05F2FD2705F5D47603CEC5F8FD02F4
S214002700C5F8011300248DF81C404FF00808CDF8DA
S21400271020808DF824408DF825408DF826408DF8D1
S2140027202740192307AA2146204605F0E7F8009718
S214002730192307AA2146204605F088F9AB6FC5F88D
S214002740B031D5F89030C5F8B43105F2053703CE70
S214002750C5F80503C5F809138DF81C40CDF8208090
S2140027608DF824408DF825408DF826408DF82740BA
S2140027701A2307AA0121204605F0C0F800971A235D
S21400278007AA0121204605F061F995ED227AD5EDDC
S214002790237A27EE277ADFED7D7A27EE277A77EE03
S2140027A0C77A95ED767A77EEC77A9FED797A67EEF7
S2140027B0877AB6EE007A77EE877A9FED767AF4EE31
S2140027C0C77AF1EE10FA40F3CA802B4683ED6E7A94
S2140027D06D4CD4ED6E7A9FED707A67EE877AFCEEDC
S2140027E0E77A012301930020009017EE903A9BB2FF
S2140027F00246014607F0E8FCD4F8B831C4F8BC310C
S2140028000023C4F8C031654B04F5E672039204F564
S214002810E472029204F5E27201921A1D009204F12B
S214002820780204F18C0104F1880001F061FB606E0F
S2140028300BF086F89FED521B41EC100B0BF018FEC8
S21400284057EC106B564BD3E9022310EE100A3946AC
S2140028500BF040FB002840F0A980514D0124D5E93B
S2140028601223304639460BF035FB002840F09F8097
S214002870013440351F2CF2D19AE0494B03EB841407
S214002880D4E90689D4E904230BF0DCF906460F46A2
S2140028903D4D42464B46D4E90A010AF0F1FE324667
S2140028A03B460BF0A5F842464B460AF0EBFE0BF013
S2140028B077FBC5F8A001D4E9088942464B46D4E91F
S2140028C00C010AF0DDFE32463B460BF091F842461C
S2140028D04B460AF0D7FE0BF063FBC5F8A40102E7EF
S2140028E02F4B03EB8414D4E9048994F938000BF0D9
S2140028F015F832463B460BF07BF842464B460BF04B
S214002900A1F9D4E90A230AF0BDFE41EC1A0B41EC0A
S214002910100B0BF021FD1C4D53EC102B4046494686
S2140029200BF066F8D4E906230AF0ACFE0BF038FB91
S214002930C5F8A001B0EE4A0AF0EE6A0A0BF050FDA8
S21400294053EC102B404649460BF052F8D4E90823C6
S2140029500AF098FE0BF024FBC5F8A401C3E69FED31
S214002960117AF4EEC77AF1EE10FA03D4064BC3EDF3
S2140029706E7A2DE70C4A044BC3F8B82128E700BF4F
S2140029800E684C35DA4DA140D80700200000000044
S214002990A5C7A5395C8F423F00000047E8FA000053
S2140029A06895FF1F8FC2753E8FC2753E0024013C9E
S2140029B0A301E34AD35C012B00F03281022B00F026
S2140029C07581E04DD5ED757A67EEE88AD5ED747AB7
S2140029D029EE279A78EE897A17EE900A0AF0B0FF69
S2140029E006460F46D84CD4E902ABCFA3D3E9002362
S2140029F0504659460AF0FCFF80468946CCA3D3E9E8
S214002A000023304639460AF0F3FF42464B460AF0AA
S214002A1039FE0BF0C5FADFEDCD7A07EE100A67EE49
S214002A20277A95ED197A77EE877AC4ED047A002333
S214002A3084F81531D5F8C421C4F88C2084F81631F2
S214002A40D5F8C821C4F8902084F81731D5F87880D6
S214002A50C4F81C80D5F8CC21C4F8942084F818312A
S214002A60D5ED228AC4ED088ADFEDB97A28EEA77A7A
S214002A70D5ED4D7A77EEC77A9FEDB67A67EE877A10
S214002A80C4ED267AB5F83E32A4F8B830AAA3D3E946
S214002A900023304639460AF0ABFF52465B460AF042
S214002AA0F1FDC4E90201AC4B1B7B002B00F0AF80AC
S214002AB0C4F83C80C4ED108AD5F89C10E164D5F8C3
S214002AC0AC10A165D5F8BC106166D5F8CC102167AE
S214002AD0D5F8DC10E167D5ED4E7A68EE277A95EDED
S214002AE0507A77EE877AC4ED0D7A95ED265AD5EDB5
S214002AF0527A65EE277A95ED547A77EE877AC4EDAA
S214002B00117AD5ED2A5AD5ED567A65EEA77A95ED67
S214002B10587A77EE877AC4ED147A95ED2E6AD5ED5D
S214002B205A7A66EE277A95ED5C7A77EE877AC4ED68
S214002B30177AD5ED326AD5ED5E7A66EEA77A95ED10
S214002B40607A77EE877AC4ED1A7A95ED367AD5ED07
S214002B50627A67EE277AD5ED644A77EEA47AC4EDFA
S214002B601D7AD5ED3A7AD5ED664A67EEA44A95ED1C
S214002B70684A74EE844AC4ED204AD5ED4F4A28EEE2
S214002B80248AD5ED514A38EE248A84ED0E8AD5ED96
S214002B90534A25EE245AD5ED554A35EE245A84ED8F
S214002BA0125A95ED575A65EE855A95ED595A75EEB7
S214002BB0855AC4ED155AD5ED5B5A26EE256AD5ED35
S214002BC05D5A36EE256A84ED186A95ED5F6A66EE04
S214002BD0866A95ED616A76EE866AC4ED1B6AD5ED67
S214002BE0636A27EE267AD5ED656A37EE267A84ED97
S214002BF01E7A95ED677A67EE877A95ED697A77EEB5
S214002C00877AC4ED217AD5F8EC30C4F88830524A79
S214002C105368013353600BB0BDEC068BBDE8F08FF4
S214002C20474B03EB8414D4E90623D4E90A010AF0DF
S214002C3027FD06460F46D4E90823D4E90C010AF01E
S214002C401FFD8046894632463B46304639460AF0E6
S214002C50CFFE04460D4642464B46404649460AF0DD
S214002C60C7FE02460B46204629460AF00BFD41ECFD
S214002C70100B0BF061FC5BEC10AB324C10EE102A24
S214002C805B46404649460AF0DDFF0BF089F9C4F87A
S214002C90D00152465B46304639460AF0D3FF0BF069
S214002CA07FF980F00040C4F8D4018AE6244D05EB95
S214002CB08415D5E90223304639460AF0E1FC06467B
S214002CC00F4695F938000AF029FE002200230BF083
S214002CD01FF9002842D0D5E90423304639460AF0C9
S214002CE0B1FFD5E90A230AF0CDFC41EC1A0BB0EE91
S214002CF04A0AF0EE6A0A0BF02FFB124C51EC100B4E
S214002D000BF04EF9C4F8D001B0EE4A0AF0EE6A0AAB
S214002D100BF066FB51EC100B0BF042F9C4F8D40133
S214002D204FE600BFAFF3008049CF924B4E81D83FAD
S214002D30AF38171D00C46240AFBC3460C3E4E43F44
S214002D406895FF1FD8070020600500200AD7233C9F
S214002D500000C8426F12033AA0020020304607F176
S214002D6000412B4B03EB8414D4E904230AF06AFFDA
S214002D70D4E90A230AF086FC23A3D3E900230AF049
S214002D8081FC41EC1A0BB2E701260025FEF752BA89
S214002D9001260025FEF74EBA01260025FEF74ABAA0
S214002DA000248DF81C40ADF81E4007AA2146204698
S214002DB000F0ABFE204600F061FF0DF11A0221463E
S214002DC0204600F071FFBDF81A30124A5360FDF736
S214002DD0E8BF00268DF81C60ADF81E6007AA3146D5
S214002DE0304600F092FE304600F048FF0DF11A0221
S214002DF03146304600F058FFBDF81A20054B5A60A1
S214002E000125FDF7DBBF00BF112D4454FB2109400F
S214002E106895FF1FD8070020F8B5124E124C5825AB
S214002E202A46214630460CF0B1FD06F299272A467E
S214002E30314638460CF0AAFD94F88630B3FA83F390
S214002E405B0984F8863084F8E730732384F887308B
S214002E502A46394604F188000CF098FD652384F86C
S214002E60E030F8BDE40700209405002008B50128EE
S214002E7006D0022807D000B108BDFDF769FB08BDE3
S214002E80FDF750FC08BDFFF7C7FFF5E72DE9F04F4B
S214002E9093B0F14F04AC3D460FCD0FC40FCD0FC419
S214002EA00FCD0FC495E8030084E80300DFF8BCA349
S214002EB0BAF86260B60006F1804606F5CA263368A0
S214002EC043F080433360DFF8A8B305220421584658
S214002ED009F0BDFC336843F0804333600522114699
S214002EE0584609F0B4FCBAF868309B0003F18043FA
S214002EF003F5CA231A6842F080421A6004AD2A46D7
S214002F00D649002004F092FBBAF85E40A40004F113
S214002F10804404F5CA24236843F080432360DFF826
S214002F20548302220621404609F0C8FD236843F078
S214002F308043236002220721404609F0BFFDBAF80D
S214002F405A904FEA890909F1804909F5CA29D9F842
S214002F50003043F08043C9F8003006221146C048CE
S214002F6009F0ACFDD9F8003043F08043C9F80030D2
S214002F7006220721BA4809F0A1FDBAF896304FF0AC
S214002F808642B84941F823209B0003F1804303F5AD
S214002F90CA231A6842F080421A6007F1380393E8A1
S214002FA0070085E807002A46AF49012008F02EFFF3
S214002FB000248DF810404FF00808CDF814808DF8E6
S214002FC018408DF819408DF81A408DF81B400F23D5
S214002FD02A461021204604F053FD0121204604F025
S214002FE0EDF9234610222146204604F095FA8DF886
S214002FF01040CDF814808DF818408DF819408DF8E3
S2140030001A408DF81B4010232A461121204604F052
S21400301037FD0121204604F0D1F92346112221462E
S214003020204604F079FA8DF81040CDF814808DF81B
S21400303018408DF819408DF81A408DF81B40412332
S2140030402A460C21204604F01BFD0121204604F0F0
S214003050B5F923460C222146204604F05DFA8DF889
S2140030601040CDF814808DF818408DF819408DF872
S2140030701A408DF81B4042232A460D21204604F0B4
S214003080FFFC0121204604F099F923460D22214633
S214003090204604F041FA8DF81040CDF814808DF8E3
S2140030A018408DF819408DF81A408DF81B404B23B8
S2140030B02A460221204604F0E3FC0121204604F0C3
S2140030C07DF9234602222146204604F025FA8DF893
S2140030D01040CDF814808DF818408DF819408DF802
S2140030E01A408DF81B404C232A460321204604F044
S2140030F0C7FC0121204604F061F92346032221463D
S214003100204604F009FA8DF81040CDF814808DF8AA
S21400311018408DF819408DF81A408DF81B40692329
S2140031202A460E21204604F0ABFC0121204604F07E
S21400313045F923460E222146204604F0EDF98DF887
S2140031401040CDF814808DF818408DF819408DF891
S2140031501A408DF81B406A232A460F21204604F0A9
S2140031608FFC0121204604F029F923460F22214630
S214003170204604F0D1F98DF81040CDF814808DF873
S21400318018408DF819408DF81A408DF81B40192309
S2140031902A460421204604F073FC0121204604F050
S2140031A00DF9234604222146204604F0B5F98DF891
S2140031B01040CDF814808DF818408DF819408DF821
S2140031C01A408DF81B401A232A460521204604F093
S2140031D057FC0121204604F0F1F82346052221463B
S2140031E0204604F099F98DF81040CDF814808DF83B
S2140031F018408DF819408DF81A408DF81B4023238F
S2140032002A460621204604F03BFC0121204604F015
S214003210D5F8234606222146204604F07DF98DF88F
S2140032201040CDF814808DF818408DF819408DF8B0
S2140032301A408DF81B4024232A460721204604F016
S2140032401FFC0121204604F0B9F823460722214638
S214003250204604F061F90FE094FA0000F40A00201A
S21400326000900440005006401C000020F8FB0000C0
S21400327000D0044000B004408DF81040CDF8148013
S2140032808DF818408DF819408DF81A408DF81B40BF
S2140032902D232A464146204604F0F2FB0121204613
S2140032A004F08CF8234642462146204604F034F9C2
S2140032B08DF81040CDF814808DF818408DF8194020
S2140032C08DF81A408DF81B402E232A4609212046E9
S2140032D004F0D6FB0121204604F070F823460922AC
S2140032E02146204604F018F98DF81040CDF81480D9
S2140032F08DF818408DF819408DF81A408DF81B404F
S21400330037232A460A21204604F0BAFB012120462C
S21400331004F054F823460A222146204604F0FCF81E
S2140033208DF81040CDF814808DF818408DF81940AF
S2140033308DF81A408DF81B4038232A460B2120466C
S21400334004F09EFB0121204604F038F823460B22A9
S2140033502146204604F0E0F8BAF85C309B0003F102
S214003360804303F5CA231A6842F080421A6002229C
S2140033704146C44809F0A2FBBAF87E30C24A4FF074
S2140033808C4142F823109B0003F1804303F5CA23C7
S2140033901A6842F080421A60BC4ABD49032006F013
S2140033A08BF9BC49032006F091FF22460121BA485A
S2140033B006F0D5FA2B46443797E8070003C31A8071
S2140033C0120CAA72029403948DF804408DF80540FE
S2140033D0BAF882108B0003F1804303F5CA231A68FB
S2140033E022F080421A60A84A4FF08C4042F8210032
S2140033F01A6842F080421A60204600F0F3FB294625
S214003400204600F0BFF92146204600F0C9FB0DEB30
S2140034100801204600F0F7FA01A9204600F044FB18
S214003420204600F04DFC22469C49204604F0EEFE65
S21400343003229B4B1A70336843F080433360AC60C2
S214003440EC606C61CDF810B00E23059301278DF863
S2140034501B708DF81E70934B08932946384609F06A
S214003460C9F9D9F8003043F08043C9F80030062285
S2140034700D218D4809F022FBD9F8003043F0804337
S214003480C9F8003006220C21874809F017FBBAF865
S2140034907C307D4A4FF08C4142F823109B0003F1AC
S2140034A0804303F5CA231A6842F080421A607F4BB5
S2140034B003F134027E49022006F0FEF87D49022020
S2140034C007F0D6FA336843F080433360AC60EC60B4
S2140034D06C61CDF810B0062305938DF81B708DF83F
S2140034E01E70704B08932946384609F083F93368F6
S2140034F043F080433360AC60EC606C61CDF810B094
S214003500072305938DF81B708DF81E70654B089386
S2140035102946384609F06EF9336843F08043336035
S214003520AC60EC606C61CDF810B0CDF814808DF80E
S2140035301B708DF81E705B4B08932946384609F0C1
S21400354059F9336843F080433360AC60EC606C61DB
S214003550CDF810B0092305938DF81B708DF81E70FA
S214003560504B08932946384609F044F9336843F02F
S21400357080433360AC60EC606C61CDF810B00A2319
S21400358005938DF81B708DF81E70464B08932946E0
S214003590384609F02FF9336843F080433360AC6057
S2140035A0EC606C61CDF810B00B2305938DF81B70A2
S2140035B08DF81E703B4B08932946384609F01AF9D9
S2140035C0336843F080433360AC60EC606C61CDF8E8
S2140035D010B00C2305938DF81B708DF81E70314BC0
S2140035E008932946384609F005F9336843F08043C6
S2140035F03360AC60EC606C61CDF810B00D230593C1
S2140036003C468DF81B708DF81E70264F089704A94F
S214003610204609F0EFF8336843F080433360002516
S214003620069507950995CDF810B00F2305938DF8EC
S2140036301B408DF81E40089704A9204609F0DAF8CA
S214003640BAF85C309B0003F1804303F5CA231A687E
S21400365042F080421A6002220C210A4809F02EFA33
S214003660BAF878304FF08C41074A42F823109B0096
S21400367003F1804303F5CA231A6842F080421A60B9
S2140036801AE000BF00A0044000500640640D002071
S2140036901095FF1F2495FF1F00600240396C000044
S2140036A0080C002000F10F40009004401C00002091
S2140036B0FC94FF1FF094FF1F0D4A0E49284605F0A4
S2140036C0FBFF0D49284606F001FE2A4621460B4818
S2140036D006F045F90A4B83F81C4183F8154183F838
S2140036E0164183F8174183F8184113B0BDE8F08FF0
S2140036F0040D0020A094FF1FB494FF1F0080034019
S21400370060050020704700BFF0B4041D0D1D00F1D9
S2140037101C06DFED146A02E00435B44214D0F4EC63
S214003720017A90ED007AF4EEC77AF1EE10FAF3DD46
S214003730F4EEE67AF1EE10FAEED5C2ED007A2F68D6
S2140037401F60F0EE676AE7E7DFED067AF4EE676A79
S214003750F1EE10FA03D1006810600A681A60F0BC37
S214003760704700BF00401C46002303700C224270C6
S2140037708370C370037143718371C37103724372A4
S2140037808372704770B584B006460D465D4B53F89D
S214003790204041238DF80C3042238DF80D3004A9CB
S2140037A0002341F8083D04AB034413F8040C02F070
S2140037B023FB2B78029ADA400292226C22F06002F7
S2140037C05B0103F06003134323646B78002B08BF90
S2140037D00123626C22F0FF0213436364226C22F022
S2140037E00C02AB789B0003F00C0313432364226C9B
S2140037F022F00302EB7803F0030313432364D4F8A8
S214003800902022F040022B799B0103F040031343E3
S214003810C4F890306B79302200924FF440520192F7
S214003820394A926904A901EB860151F8101C22EA74
S2140038300102002E43D0012E4FD0334B9A61AA7955
S214003840012100914FF4807101919B6904A901EB5D
S214003850860151F8101C23EA0103002E39D0012EF0
S21400386045D0294A9361D4F8903023F00403EA79CE
S214003870002A14BF042200221343C4F89030D4F860
S214003880902022F003022B7A03F003031343C4F8BC
S2140038909030D4F8943023F008036A7A002A14BFD4
S2140038A0082200221343C4F8943036B9AB7A1BBB07
S2140038B0154A536823F40023536004B070BD1B01FF
S2140038C003F03003134310498B61AA798B6923F008
S2140038D0010302F001021343C3E71B0303F4405342
S2140038E0134309498B61AA798B6923F4807312020A
S2140038F002F480721343B4E7034A536843F4002388
S2140039005360DAE7F0FA00000080044030B484B078
S214003910374B53F820301A6CC2F341120A705A6CB7
S2140039204A701A6CC2F38102012A56D0022A0CBFD2
S214003930022200228A701A6C02F00302CA70D3F8C0
S2140039409020C2F380120A71002202920122009295
S2140039504FF48072019208220392264A926904ACC0
S21400396004EB800454F8105C2A4054F8084CE240FB
S214003970012A14BF002201228A71302200924FF4DD
S21400398040520192042202920C220392194A926932
S21400399004AC04EB800454F8105C2A4054F8084C3D
S2140039A0E240012A1BD0022A0CBF022200224A71E2
S2140039B0D3F89020C2F38002CA71D3F8902002F0A8
S2140039C003020A72D3F89430C3F3C0034B7240B1BB
S2140039D000238B7204B030BC70470122AAE7012294
S2140039E0E5E7044B5B68C3F3C0438B72F2E700BFA6
S2140039F0F0FA0000008004400023037043708370D8
S214003A008380C3807047174B53F82030D3F890203C
S214003A1022F020020878002814BF2020002002434D
S214003A20C3F89020D3F8902022F01002487800289F
S214003A3014BF102000200243C3F89020D3F8902033
S214003A4022F008028878002814BF082000200243CD
S214003A50C3F890208A88C3F88820CA88C3F88C20C8
S214003A60704700BFF0FA00000C4B53F82030D3F834
S214003A709020C2F340120A70D3F89020C2F30012CE
S214003A804A70D3F89020C2F3C0028A70D3F8882018
S214003A908A80D3F88C30CB80704700BFF0FA0000E5
S214003AA000230370437070470C4B53F82020D2F865
S214003AB0943023F004030878002814BF0420002064
S214003AC00343C2F89430D2F8940020F003004B78F9
S214003AD003F003030343C2F894307047F0FA000083
S214003AE0064B53F82020D2F89430C3F380030B70B3
S214003AF0D2F8943003F003034B707047F0FA0000DE
S214003B00002303701F234380704730B4124B53F8D2
S214003B10200053881478A3F5706292B2052A0BD859
S214003B200E4A556825F4E025556055681B0403F4D5
S214003B30E0232B435360152350F8212003F01F0386
S214003B4022F05F021343002C14BF402200221343CE
S214003B5040F8213030BC7047F0FA00000080044086
S214003B600D4B53F8200050F82130C3F38013137028
S214003B7050F8213003F01F0308494968152B01D07F
S214003B805380704711F4002FFAD0044B5B68C3F3E0
S214003B90024303F57063F3E7F0FA00000080044088
S214003BA082B00E2300934FF4606301930C4B9B6925
S214003BB002AA02EB800252F8082C23EA020328B17C
S214003BC0012808D0064A936102B07047490001F008
S214003BD00E010B43F6E7490201F460610B43F1E77F
S214003BE00080044030B583B00446224B53F82020B2
S214003BF000231F2142F823100133102BFAD1002195
S214003C0011640C235364C2F88810C2F88C10C2F8F2
S214003C109010C2F89410C2F8A0100423C2F8B03076
S214003C20302300934FF440530193134B9A6902A834
S214003C3000EB840050F8085C22EA05029A61012233
S214003C4000924FF4807201929A6950F8080C22EAAA
S214003C5000029A612046FFF7A3FF44B9064B5A6854
S214003C6022F400225A605A6822F4E0225A6003B016
S214003C7030BD00BFF0FA000000800440044B53F84B
S214003C802020D2F8903013F0800FFAD1704700BF92
S214003C90F0FA0000034B53F8203053F82100C0F32D
S214003CA0C0107047F0FA0000044B53F82030123171
S214003CB053F82130C3F30B0313807047F0FA00006B
S214003CC02DE9F04782B04F4B53F82040D4F894309B
S214003CD0C3F38008D4F8947007F00307D4F8906014
S214003CE0656CEDB2D4F8943043F00303C4F8943016
S214003CF0D4F8943043F00403C4F89430D4F89030E9
S214003D0023F04003C4F89030636C23F0FF0343F0C5
S214003D100C0363640023C4F8B430C4F8B830C4F8A5
S214003D20BC30C4F8C030C4F8C430C4F8C830C4F8D6
S214003D30CC3041228DF8042042228DF8052002A9BD
S214003D4041F8083DD4F840904FEA591A02AB18449F
S214003D5010F8040C02F050F8009B0AF0030A23FA4D
S214003D600AFA294A924512D9284A934208D9284A7B
S214003D70934245D9274A934294BF0323002300E089
S214003D800123226C22F0600242EA43132364D4F833
S214003D90943043F08003C4F89430D4F8943013F091
S214003DA08003FAD1226C22F0600209F0600949EA29
S214003DB002022264D4F8942022F00402B8F1000F24
S214003DC018BF04231343C4F89430D4F8943023F077
S214003DD003031F43C4F89470D4F8903023F04003D4
S214003DE006F040061E43C4F89060002D08BF01256B
S214003DF0636C23F0FF031D43656402B0BDE8F087E3
S214003E000223BEE7F0FA000040787D0181F0FA0256
S214003E1003E1F50507C2EB0B042303800023438070
S214003E207047F0B4114B53F820200B88D2F8C4002A
S214003E30D2F8C070D2F8BC60D2F8B850D2F8B4400D
S214003E40C2F8B0303844034433442B44234413F4BC
S214003E50784F14BF4FF0FF3300239BB2C2F8AC304C
S214003E608B78C2F8A030F0BC704700BFF0FA0000B4
S214003E70064B53F82020D2F8B030C3F309030B806A
S214003E80D2F8A030DBB24B80704700BFF0FA0000DB
S214003E90024B184490F90800704700BFF0FA000083
S214003EA0074B53F82020012905D0D2F8903013F4A0
S214003EB0702FFAD17047136C43F480731364F4E7E1
S214003EC0F0FA0000044B53F82020D2F8903043F06C
S214003ED07063C2F890307047F0FA0000034B53F856
S214003EE02030D3F89000C0F303607047F0FA00006B
S214003EF02DE9704F2DED068B81468A4693469846EF
S214003F000E9E086809F01CFD41EC190B41EC100BE5
S214003F100AF066FA55EC104BDBF8000009F010FDCD
S214003F2041EC180B41EC100B0AF05AFAB0EE40AA1E
S214003F30F0EE60AAB0EE490AF0EE690A0AF00CFA52
S214003F40B0EE409AF0EE609AB0EE480AF0EE680ADC
S214003F500AF002FAB0EE408AF0EE608AD6ED007AF9
S214003F60F1EE677A98ED007AC7EE876A16EE900A49
S214003F7009F0E6FC22462B4609F03AFD53EC1A2BD4
S214003F8009F036FD04460D4653EC182B51EC190B80
S214003F9009F02EFD02460B462046294609F072FB24
S214003FA004460D46D9F8000009F0CAFC02460B4646
S214003FB02046294609F01CFD09F0F2FF0F9B186009
S214003FC0DAF8000009F0BCFC41EC190B41EC100BD0
S214003FD00AF006FAB0EE40AAF0EE60AADBF800009F
S214003FE009F0AEFC41EC180B41EC100B0AF0B4F9EA
S214003FF055EC104BB0EE490AF0EE690A0AF0ACF93F
S214004000B0EE409AF0EE609AB0EE480AF0EE680A1B
S2140040100AF0E6F9B0EE408AF0EE608A96ED007A95
S214004020D8ED007AC7EE276A16EE900A09F088FCEB
S21400403053EC1A2B09F0DCFC22462B4609F0D8FC80
S21400404004460D4653EC182B51EC190B09F0D0FC26
S21400405002460B462046294609F014FB04460D4648
S214004060D9F8000009F06CFC02460B4620462946AB
S21400407009F0BEFC09F094FF109B1860DAF8000007
S21400408009F05EFC41EC100B0AF0AAF955EC104B57
S214004090D9F8000009F054FC22462B4609F0A8FC8B
S2140040A004460D46D8F8000009F04AFC02460B46C6
S2140040B02046294609F0C6FD09F072FF119B1860DC
S2140040C0BDEC068BBDE8708F2DE9F84F2DED028B09
S2140040D0814688461E46106809F032FC04460D46A6
S2140040E096ED007A0C9BD3ED007A77EE277A17EEE2
S2140040F0900A09F025FC41EC180B41EC100B0AF075
S2140041002BF957EC106BB0EE480AF0EE680A0AF08E
S21400411067F95BEC10AB32463B462046294609F071
S21400412067FC06460F46D9F8000009F009FC02466F
S2140041300B463046394609F05BFC06460F465246AB
S2140041405B462046294609F053FC04460D46D8F83F
S214004150000009F0F5FB02460B462046294609F00A
S21400416047FC02460B463046394609F08BFA09F002
S21400417017FF0D9B1860BDEC028BBDE8F88F0000A2
S214004180074B5B69DBB2042B06D0802B06D0012BD5
S2140041900CBF0120042070470220704703207047A0
S2140041A000E00740044BD3F8003113F0807F1ABFBD
S2140041B0024B18680020704700400640F00C0020B4
S2140041C010B584B00B4600293BD0444AD2F80021F3
S2140041D012F0007F7DD1414AD2F8001121F400018F
S2140041E0C2F800114FF08061C2F8001100213C4A6D
S2140041F01160002870D05A7A120202F4E062197A2E
S21400420001F007010A433548C0F80421DA791201A3
S21400421002F030029979C90001F008010A43597981
S214004220890001F004010A43C0F808211A79012A1E
S21400423029D0E2B1022A32D01A68294B1A60294CDA
S2140042403BE000238DF804308DF80C3001228DF809
S21400425008208DF809208DF805208DF806300223F9
S2140042608DF8073004AB204A43F8102DADE71A7BD3
S214004270002A14BF4FF40002002242F00102174940
S214004280C1F80021D8E71A7B002A14BF4FF40002B9
S214004290002242F001121149C1F80021CCE71A7B36
S2140042A0002A14BF4FF403024FF4403242F00102DA
S2140042B00A49C1F80021BFE7013CFFF773FF18B9B0
S2140042C0002CF9D1032005E0002C14BF00200320A9
S2140042D000E0022004B010BD0020FBE700400640CE
S2140042E0F00C002088E7300000127A00084BD3F864
S2140042F0003213F0807F09D0054BD3F8083203F064
S2140043000103002B034808BF0020704700207047B9
S2140043100040064000127A0010B582B00B46002915
S21400432038D02D4AD2F8002212F0007F4FD12A4A08
S214004330D2F8001221F40001C2F800120021C2F8DF
S2140043400012002846D09A78120202F4E0625978E9
S21400435001F007010A432049C1F804221A7802F046
S2140043600102C1F8082259799A791B79002B14BFEB
S21400437003230123002914BF042100210B43002A34
S21400438014BF4FF4000200221343134AC2F800324F
S214004390642410E000238DF8043001228DF80520F7
S2140043A08DF806308DF801208DF8022002AB03F858
S2140043B0082DB6E7013CFFF799FF18B9002CF9D194
S2140043C0032005E0002C14BF0020032000E002209C
S2140043D002B010BD0020FBE700400640054BD3F8B6
S2140043E0003313F0807F1DBF024BD3F8083302481A
S2140043F00020704700400640006CDC0210B582B01A
S2140044000B46002932D0294AD2F8002312F0007F4A
S21400441047D1264AD2F8001321F40001C2F800134F
S2140044204FF08061C2F8001300283DD09A7812023F
S21400443002F4E062597801F007010A431B49C1F80B
S21400444004231A7802F00302C1F808239A795B79EC
S214004450002B14BF01230923002A14BF4FF40002C7
S21400446000221343C1F8003364240EE001238DF8C4
S214004470053000228DF806208DF801308DF80230C8
S21400448002AB03F8082DBEE7013CFFF7A7FF18B9FB
S214004490002CF9D1032005E0002C14BF00200320D7
S2140044A000E0022002B010BD0020FBE700400640FE
S2140044B008B50F4BD3F8003613F0807F02D10023E7
S2140044C0184608BDFFF76EFE03460028F8D00849D8
S2140044D0D1F80826C2F302220132B0FBF2F3D1F87B
S2140044E00826C2F30442103203FB02F35B08E7E738
S2140044F00040064010B584B00C4699B13D4BD3F849
S214004500003613F0007F72D13A4BD3F8002622F41F
S2140045100002C3F800264FF08062C3F80026A0B958
S214004520002065E000238DF804308DF80B30012262
S2140045308DF808208DF809208DF8053007228DF8B3
S21400454006208DF8073001ACD8E7FFF72BFE63791D
S2140045501B0203F4E063227902F0070213432549A5
S214004560C1F8043663781B0203F4E063A2781204F1
S21400457002F4F8121343C1F808362378012B16D03C
S2140045804BB1022B1FD04FF47A74FFF791FF48BB54
S21400459034B3013CF9E7E379002B14BF4FF4000372
S2140045A0002343F00103134AC2F80036EBE7E37931
S2140045B0002B14BF4FF40003002343F001130D4AF1
S2140045C0C2F80036DFE7E379002B14BF4FF403038D
S2140045D04FF4403343F00103064AC2F80036D2E7F0
S2140045E0032005E0002C14BF0020032000E002207A
S2140045F004B010BD004006402DE9F04180460D464F
S2140046008C7801344E7806FB04460F7807FB044787
S214004610CB78013B052B1CD8DFE803F00312151BF3
S2140046201B18FFF7BFFD0009B8F1020F4AD0B8F11A
S214004630030F7CD0B8F1010F0DD00020BDE8F0814B
S214004640FFF754FEEFE7FFF7C9FEECE7FFF730FF92
S214004650E9E70020E7E7EA7802EB42015D4B53F812
S21400466021301B0904FB03F4A04200F298800B469D
S214004670584901EB83035B681B0906FB03F6B0424F
S21400468000F2908002EB420301EB83039B681B0958
S21400469007FB03F7B84200F28880AB781B0403F4EC
S2140046A07023120602F0706213432A7802F00F029B
S2140046B013436A781201D2B21343474A536100206B
S2140046C0BDE8F081EA7802EB4201424B03EB81033E
S2140046D05B6D1B0904FB03F4A04269D80B463D49F9
S2140046E001EB83039B6D1B0906FB03F6B04262D801
S2140046F002EB420301EB8303DB6D1B0907FB03F7A9
S214004700B8425BD8AB781B0403F47023120602F0A1
S214004710706213432A7802F00F0213436A7812017C
S214004720D2B213432C4A93610020BDE8F081EB78A7
S21400473003EB4301274A02EB8102D2F8A8201209B4
S21400474004FB02F4A0423CD80A46224901EB82024E
S214004750D2F8AC20120906FB02F6B04234D803EBBE
S214004760430201EB8202D2F8B020120907FB02F7DF
S214004770B8422CD8AA78120402F470221B0603F062
S214004780706313432A7802F00F0213436A7812010B
S214004790D2B21343104AD3610020BDE8F081012055
S2140047A0BDE8F0810120BDE8F0810120BDE8F08180
S2140047B00120BDE8F0810120BDE8F0810120BDE8C0
S2140047C0F0810120BDE8F0810120BDE8F0810120E4
S2140047D0BDE8F081FCFA00000040064038B505460A
S2140047E0FFF7CEFC2946FFF707FF044658B9E878DE
S2140047F00A220849013A0B69C3F30363984204D0BE
S214004800002AF7D10324204638BD002A08BF032417
S214004810F9E700BF0040064010B504461B4B1B6975
S214004820C3F30363013B052B1DD8DFE803F0031336
S214004830161C1C19FFF7B6FC144B1B69C3F3034385
S2140048400133B0FBF3F0012C0FD0ECB1022C14D0E6
S214004850002010BDFFF74AFDEEE7FFF7BFFDEBE7D0
S214004860FFF726FEE8E70020E6E7084B1B69C3F3E0
S21400487003130133B0FBF3F010BD044B1B6903F0C8
S2140048800F030133B0FBF3F010BD00BF004006403D
S21400489008B50F4B1B6AC3F30363062B15D8DFE876
S2140048A003F004080B0E141411000220FFF7B4FFE7
S2140048B008BDFFF777FC08BDFFF718FD08BDFFF73A
S2140048C08DFD08BDFFF7F4FD08BD002008BD00BF44
S2140048D00040064008B541B1012931D0002002460B
S2140048E010B1431E22FA03F008BD0438032852D83C
S2140048F0DFE800F00B02141DFFF770FD0246294B9F
S214004900D3F8040300F00700EAE7FFF7EFFC0246DF
S214004910244BD3F8040200F00700E1E7FFF742FC5F
S2140049200246204BD3F8040100F00700D8E7FFF753
S214004930BFFD02461B4BD3F8040600F00700CFE786
S214004940043803282AD8DFE800F00B02141DFFF70E
S21400495045FD0246134BD3F80403C0F30220BFE71D
S214004960FFF7C4FC02460F4BD3F80402C0F3022044
S214004970B6E7FFF717FC02460A4BD3F80401C0F36C
S2140049800220ADE7FFF794FD0246064BD3F8040677
S214004990C0F30220A4E700200246A1E7002002465A
S2140049A09EE700BF0040064008B5114B1B69C3F3E5
S2140049B00113032B19D8DFE803F0020710130021B8
S2140049C00620FFF787FF08BD094B186900F00200B4
S2140049D0002818BF4FF4FA4008BD064B186808BDFB
S2140049E000210520FFF776FF08BD002008BD00BFA8
S2140049F000800440F40C0020114B1B69C3F38103B4
S214004A00022B07D0032B0ED0002B0CBF4FF4FA302E
S214004A10002070470A4B186900F00200002818BFF3
S214004A204FF4FA407047064B186910F0020006D0A3
S214004A30186900F00100002818BF4FF47A7070471C
S214004A400080044008B5244B5B6813F4006F40D028
S214004A50214B5B68C3F303130E2B09D8DFE803F082
S214004A600A080D081208171C20252F0829082C00F4
S214004A70002026E0FFF70CFF23E001210620FFF7C9
S214004A8029FF1EE001210420FFF724FF19E0012181
S214004A900520FFF71FFF14E00020FFF7BDFE10E023
S214004AA001210720FFF716FF0BE00120FFF7B4FEF9
S214004AB007E0FFF7A1FF04E0FFF776FF01E04FF401
S214004AC0FA30054B5B68C3F302230133B0FBF3F007
S214004AD008BD002008BD00BF0080044010B50C468D
S214004AE015380E2800F2A380DFE800F008131E2910
S214004AF0333D414B5D6A737E87909900584BDB6867
S214004B00C3F30163022B00F29D80564A52F823300D
S214004B1022E0534BDB68C3F38163022B00F29480E0
S214004B20504A52F8233017E04D4BDB68C3F301734D
S214004B30022B00F28B804B4A52F823300CE0484B95
S214004B40DB689B0F022B00F28380464A52F8233024
S214004B5002E0FFF777FF03460020002B6AD0002C08
S214004B607CD0236010BDFFF71FFF0346F4E73E4BE3
S214004B709B78DB0901D00023EEE7FFF73DFF0346F5
S214004B80EAE7394B9B78DB0964D1354B1B6913F098
S214004B900203E1D0324B1B6903F00103002B18BF60
S214004BA04FF47A73D8E7304B9B78DB0954D12C4B03
S214004BB01B6903F00203002B18BF4FF4FA43CBE740
S214004BC0294B9B78DB09002B14BF00234FF4FA33E4
S214004BD0C2E7234B1B6CC3F3001383B30120FFF71C
S214004BE01BFE03460020B8E71D4B1B6CC3F3C00337
S214004BF0002BF3D14FF48070B1E7194B1B6CC3F355
S214004C008003002BEAD14FF48070A8E7144B1B6C8E
S214004C10C3F34003002BE1D14FF480709FE7104BA5
S214004C201B6C13F00103D9D14FF4807097E7042072
S214004C30002392E7042818BF4FF480708FE74FF4E4
S214004C4080708CE7002387E7002385E7002383E74F
S214004C50002381E700237FE700237DE710BD00BF28
S214004C6000800440F80C002000D0074030B583B028
S214004C70002301932F4B03EB4003B3F8FC309B005B
S214004C8003F1804303F5CA231D68C5F3C0051C68FD
S214004C9004F00704AC4219D31A6812F0804F15D0FE
S214004CA01B68C3F30263013B052B21D8DFE803F042
S214004CB003111620201B0620FFF70CFE019001347E
S214004CC0019BB3FBF4F405FB04440194019803B084
S214004CD030BD0420FFF7FEFD0190F0E70520FFF74A
S214004CE0F9FD0190EBE70720FFF7F4FD0190E6E7FA
S214004CF03C3803281BD8DFE800F002080E1401A990
S214004D001520FFF7EBFE0024D9E701A91620FFF7D0
S214004D10E5FE0024D3E701A91720FFF7DFFE0024F5
S214004D20CDE701A91820FFF7D9FE0024C7E7002425
S214004D30C5E700BFFCFA000030B583B00546FFF7B4
S214004D40B7FB88B1062D56D006238DF80730022310
S214004D508DF8063001238DF8053002A800F8043DD2
S214004D60FFF73CFD044600E00124FFF737FB10B1D7
S214004D70032D4AD074B9FFF715FA10B1012D4DD0A6
S214004D80D4B9FFF7B3FA10B1022D00D01CBB2046F1
S214004D9003B030BD03238DF8073000228DF80620BF
S214004DA001228DF8052002A800F8043DFFF716FD45
S214004DB00446E0E70124E3E701238DF807300022EC
S214004DC08DF806208DF8053002A800F8043DFFF7A0
S214004DD005FD0446D5E702238DF8073000238DF83D
S214004DE006308DF8053002A8012300F8043DFFF7D1
S214004DF0F5FC0446CBE7FFF7F1FA0028CAD1FFF727
S214004E00D1F90028D6D10124BBE7FFF7CBF900285B
S214004E10B6D1FFF76BFA0028B8D1B8E7FFF766FA05
S214004E200028B3D1B3E7174B1B69C3F30363013BF9
S214004E30052B06D8DFE803F0031D20050523012314
S214004E40C37010490A69104BC2F303121A4492F851
S214004E509C2142700A69C2F303421A4492F89C21CC
S214004E6082700A6902F00F02134493F89C310370B3
S214004E7070470223C370E4E70323C370E1E7062309
S214004E80C370DEE700400640FCFA000001383F2809
S214004E902DD8DFE800F02A282C262C2C2C242C2CAD
S214004EA02C2C2C2C2C222C2C2C2C2C2C2C2C2C2C47
S214004EB02C2C2C2C2C202C2C2C2C2C2C2C2C2C2C39
S214004EC02C2C2C2C2C2C2C2C2C2C2C2C2C2C2C2C1D
S214004ED02C2C2C2C2C2E06207047052070470420E6
S214004EE0704703207047022070470120704700205B
S214004EF0704707207047F0B5A5B028B304460646AD
S214004F00002800F0FF80C54B1B69C3F30363032B27
S214004F1000F0C680FFF762FA002800F0B88003238E
S214004F208DF8073000228DF8062001228DF8052026
S214004F3024A800F88C3DFFF751FC0546002800F039
S214004F40AF80284625B0F0BD01238DF80B30002237
S214004F508DF80C208DF80D308DF80E208DF8083069
S214004F608DF809308DF80A308DF816308DF814302B
S214004F708DF815208DF80F208DF810308DF8113033
S214004F808DF838300D928DF82530A54906918DF8AC
S214004F901C208DF824208DF81D308DF81E20022050
S214004FA08DF81F008DF820308DF821308DF83030C8
S214004FB08DF828208DF82F208DF829200C218DF8CB
S214004FC02A108DF82B208DF82C308DF82D308DF88A
S214004FD03D3003218DF83C108DF84B308DF8411094
S214004FE08DF840208DF83F308DF83E308DF8450026
S214004FF08DF844308DF843208DF8421006208DF849
S21400500049008DF848208DF847308DF846108549C0
S2140050102291202121918DF84C308DF84D208DF86D
S2140050204E208DF84F208DF850308DF854308DF886
S21400503053308DF852208DF851208DF878308DF849
S21400504079308DF87A308DF87B308DF87C308DF89D
S2140050507D308DF883308DF858301792189219925B
S2140050601A921B921C921D928DF87E308DF87F301E
S2140050708DF880208DF881208DF882208DF88C3078
S2140050808DF88D308DF88E2002AE34463BE7002139
S2140050900120FFF7B3F9054600287FF452AF3EE73C
S2140050A03146E078FFF738F90546002800F0C28060
S2140050B0FFF766F8022800F0F780032800F0F78074
S2140050C0012800F0D180002D7FF43BAF0022564B24
S2140050D01A6094F8303013B1E26A534B1A6094F8B1
S2140050E0353053B14D490A6A22F0706294F8343074
S2140050F01B0603F0706313430B6294F84330002BD7
S21400510040F0338194F84430E3B194F8455094F875
S214005110463094F847204549486820F400604860C7
S214005120496821F47F61002D14BF4FF40060002011
S2140051301B01DBB2120202F4E06213430B4303438B
S2140051403A4A536094F84830DBB194F84A3094F801
S21400515049203649096921F03F0194F84C00014383
S21400516094F84B00002814BF022000209B0003F098
S2140051700C030B43120102F03002134303432B4A85
S214005180136194F87030002B37D0284B196C21F03F
S214005190010194F871200A431A641B6C23F0020381
S2140051A094F87220002A14BF0222002213431F4ADA
S2140051B01364136C23F0040394F87320002A14BFBE
S2140051C0042200221343194A1364136C23F00803C5
S2140051D094F87420002A14BF082200221343134AAE
S2140051E01364136C23F0100394F87520002A14BF80
S2140051F01022002213430D4A136494F85030002BFB
S21400520000F000810A4B626D1A60A26D5A60E26D72
S2140052109A6004F160000121044DCBE00040064096
S21400522000127A000094FF1FF40C00200080044057
S214005230F80C002004F11001607FFEF7C1FF054660
S21400524000287FF435AF04F1200194F82800FFF71A
S21400525051F90546FEF794FF022825D0032826D0EC
S214005260012801D0002601E004F13606002D7FF467
S2140052702AAFF378032B1DD08DF80730B3788DF85E
S214005280063073788DF80530337824A800F88C3D06
S214005290FFF7A4FA054600287FF415AFE11DA07BB2
S2140052A0FFF7ACF805460EE704F13A06DEE704F130
S2140052B03E06DBE794F828300BBB637F93BBE378AE
S2140052C0002B42D10125002D7FF4FDAEE11DA07B11
S2140052D0FFF794F8054600287FF4F5AEF3788DF8CE
S2140052E00730B3788DF8063073788DF8053033784C
S2140052F024A800F88C3DFFF771FA0546E3E606237E
S2140053008DF8073002238DF8063001238DF805301E
S21400531024A800F88C3DFFF761FA0546637F7BB151
S2140053200128D0D101238DF8073000228DF8062001
S2140053308DF8053024A800F88C3DFFF74FFA054697
S214005340E378002BBFD0012DBDD102238DF80730A6
S21400535000238DF806308DF8053024A8012300F8C8
S2140053608C3DFFF73BFA0546ADE704F13601012018
S214005370FFF742F9054600287FF4E3AD04F13A0151
S2140053800220FFF739F9054600287FF4DAAD04F16C
S2140053903E010320FFF730F9054600287FF4D1AD23
S2140053A0B0E626F040761B0603F040733343EB600E
S2140053B00131C9B250F8043BEE684A1ED2B2032A45
S2140053C000F2A18001A757F822F000BFA353000007
S2140053D0DD530000EB530000F953000026F0406652
S2140053E09B0603F040633343E1E726F040561B0775
S2140053F003F040533343DAE726F0404646EA837329
S214005400444AD36094F87630EBB1424A936E00205B
S2140054109066516821F4805194F878301B0303F4A9
S21400542080530B435360906694F877305BB194F8E2
S21400543079305B0003F00E0394F87A2042F0805235
S2140054401343344A936614F17C0F3DD0D4F8803071
S214005450002B39D0E36F002B36D000212E482F4D7D
S21400546001EB8102D4F880309B5C00EB4303B3F879
S214005470FC309B0003F1804303F5CA231E6826F028
S21400548080461E60D4F880309F189E5CBB781B0652
S21400549003F0E063FA78D20002F0080213433A7988
S2140054A002F0070213437A78002A14BF4FF08042B6
S2140054B00022134300EB4606B6F8FC2045F82230DF
S2140054C00131E36F9942CBD394F8843003B3144987
S2140054D08B7803F07F0394F8852082F0010243EA7C
S2140054E0C213DBB28B7094F98630002BBCBF20331E
S2140054F05BB20B490A7903F01F0302F0E002134384
S2140055000B7100251DE5EE6003297FF651AF79E7A4
S214005510002516E500800440FCFA00000050064016
S21400552000D0074070B504460D46112807D9232839
S21400553040F285804D2840F28580042070BD1128F9
S2140055407AD8DFE800F00913191F24292E33383CD7
S21400555041484F565D646B720020FFF75DF90346C5
S2140055600020002D00F0D9802B6070BD0120FFF7D1
S21400557053F903460020F4E70220FFF74DF90346EF
S2140055800020EEE7FFF75EFA03460020E9E7FEF7A5
S214005590ADFE03460020E4E7FEF720FF03460020AA
S2140055A0DFE7FEF7FFFD03460020DAE7FEF780FFA1
S2140055B003460020D5E7594B1B680020D1E7FFF7CC
S2140055C067F903460020CCE700210420FFF782F9A4
S2140055D003460020C5E701210420FFF77BF90346B8
S2140055E00020BEE700210520FFF774F903460020DF
S2140055F0B7E701210520FFF76DF903460020B0E765
S21400560000210620FFF766F903460020A9E70121DE
S2140056100620FFF75FF903460020A2E700210720D7
S214005620FFF758F9034600209BE701210720FFF704
S21400563051F90346002094E70023042091E7FFF782
S2140056404DFA70BD242805D804200023002D64D010
S2140056502B6070BDA0F13303DBB21A2B07D8304A9B
S21400566022FA03F313F0010F18BF0420EDD12D4BDF
S21400567003EB4403B3F8FC202B4B53F8223013F013
S214005680804F37D14FF48070DFE70120FFF7C4F872
S214005690034600283CD100234FF48070D6E7002054
S2140056A0FFF7BAF803460028F5D031E00220FFF7EE
S2140056B0B3F803460028EED02AE016F0080F06D10D
S2140056C016F0100F0BD100234FF48070BEE70021B8
S2140056D02046FFF7CBFA034616F0100F04D0012140
S2140056E02046FFF7C3FA0346002B14BF00204FF4F2
S2140056F08070ABE70B4B234493F8AC6116F0200F99
S214005700C3D116F0400FCAD116F0800FCED10023B9
S21400571016F0180FD1D1002098E770BDF40C0020C9
S21400572041210004FCFA00000050064070B582B02B
S21400573004460D4689B1554B234493F8AC3113F01B
S214005740010F63D113F0180F30D06A78043A032A99
S2140057505AD8DFE802F02325272901238DF80030E8
S214005760FEF7C4FD48B104238DF801300123ADF8DF
S2140057700230ADF804306D46DDE7FEF72FFE08B1C7
S2140057800523F1E7FEF794FE08B10723ECE7FEF7E2
S21400579009FD002814BF06234F23E5E7022206E092
S2140057A0032204E0012202E0062200E0002213F0B9
S2140057B0040F1ABFAE8806F1FF36002613F0020F5C
S2140057C01ABF698801F1FF310021304B03EB440416
S2140057D0B4F8FC40A30003F1804303F5CA2318681D
S2140057E020F0804018602B7863B1120642F08042A9
S2140057F006F007063243C90001F008010A43244BAD
S21400580043F8242002B070BD0022D0E72B781F3C5E
S214005810042CF7D8DFE804F02E22160A03001D49F0
S2140058200A6C22F0010213430B64EBE7194A126C70
S21400583022F00202002B14BF022300231343154A52
S2140058401364DFE7134A126C22F00402002B14BF25
S2140058500423002313430F4A1364D3E70D4A126C44
S21400586022F00802002B14BF082300231343094A22
S2140058701364C7E7074A126C22F01002002B14BF0D
S214005880102300231343034A1364BBE7FCFA00000B
S214005890005006400080044070B582B005460C46B5
S2140058A0FEF76EFC06469DB12B68022B0ED0042B2D
S2140058B010D0012B0CBF012504256CB12378043BC6
